:040000000CEF00F011
:10000800FACF07F0FBCF08F0E9CF09F099ED05F03A
:04001800C6EF06F039
:10080000002D2D2D2D203230313920476F6B75682A
:1008100073202D2054582F52582054455354202DC6
:100820002D2D2D00002D2D2D2D2D2D2D2D2D2D2D52
:100830002D2D2D2D2D2D2D2D2D2D2D2D2D2D2D2DE8
:100840002D2D2D2D2D2D2D000048692120492072A0
:10085000657065617420616C6C20646F20796F75C0
:100860002073617921000028456E646C696E6520F3
:10087000636861723A20277D2729202D3E200000E1
:1008800052656365697665643A2000000000000ADD
:1008900000000000000E1E6E000E1D6E00D0ACA207
:1008A000FED71D5017241B6E1E5018201C6E1BC037
:1008B000F6FF1CC0F7FFF86A070EF76403D00800C4
:1008C000F55005D0F6CFE9FFF7CFEAFFEF50AD6E58
:1008D00082B003D01B6A1B2A01D01B6A8B501B18E5
:1008E000FE0B1B188B6E1D4A1E2A1D5017241B6EF3
:1008F0001E5018201C6E1BC0F6FF1CC0F7FFF86AC4
:10090000070EF76403D00800F55005D0F6CFE9FFD5
:10091000F7CFEAFFEF500009D8B420D01D501724BC
:100920001B6E1E5018201C6E1BC0F6FF1CC0F7FF6C
:10093000F86A070EF76403D00800F55005D0F6CF2B
:10094000E9FFF7CFEAFFEF500A0AD8B407D01E50EC
:1009500005E11D28D8B002D0A2D700D01D50172421
:100960001B6E1E5018201C6E1BC0F6FF1CC0F7FF2C
:10097000F86A070EF76403D00800F55005D0F6CFEB
:10098000E9FFF7CFEAFFEF500A0AD8B423D01D5091
:1009900017241B6E1E5018201C6E1BC0F6FF1CC0B7
:1009A000F7FFF86A070EF76403D00800F55005D08A
:1009B000F6CFE9FFF7CFEAFFEF50AD6E82B003D07C
:1009C0001B6A1B2A01D01B6A8B501B18FE0B1B18BD
:1009D0008B6E00D01ABE0CD01A5005E11904D8B0A5
:1009E00002D006D000D0ACA2FED70A0EAD6E00D069
:1009F000ACA2FED70D0EAD6E1200000E176E000EEB
:100A0000166E8A88000E176E000E166E17BE08D07E
:100A1000175015E1140E165CD8B011D001D00FD0CC
:100A20001A0E156EF80EE82EFED7152EFCD700D044
:100A3000164A172A17BEF4D7175001E1EBD78A9848
:100A4000000E176E000E166E17BE08D0175015E177
:100A5000140E165CD8B011D001D00FD01A0E156E3E
:100A6000F80EE82EFED7152EFCD700D0164A172A0E
:100A700017BEF4D7175001E1EBD78A88000E176E26
:100A8000000E166E17BE08D0175015E1140E165C36
:100A9000D8B011D001D00FD01A0E156EF80EE82E76
:100AA000FED7152EFCD700D0164A172A17BEF4D74A
:100AB000175001E1EBD78A98000E176E000E166EE4
:100AC00017BE08D0175015E1140E165CD8B011D01F
:100AD00001D00FD01A0E156EF80EE82EFED7152E87
:100AE000FCD700D0164A172A17BEF4D7175001E1D9
:100AF000EBD78A88000E176E000E166E17BE08D050
:100B0000175015E1140E165CD8B011D001D00FD0DB
:100B10001A0E156EF80EE82EFED7152EFCD700D053
:100B2000164A172A17BEF4D7175001E1EBD78A9857
:100B300012000600EACF0AF0E1CF0BF0E2CF0CF092
:100B4000D9CF0DF0DACF0EF0F3CF0FF0F4CF10F0D5
:100B5000F6CF11F0F7CF12F0F8CF13F0F5CF14F075
:100B60009EAA51D011EC07F0ABA203D0AB98AB8892
:100B70004AD026282710D8B42DD0000E2624D96EAE
:100B8000010E2720DA6EAECFDFFF000E2624D96ECD
:100B9000010E2720DA6EDF50D8B414D0000E2624C0
:100BA000D96E010E2720DA6E0A0EDE18D8B40AD0EC
:100BB000000E2624D96E010E2720DA6E7D0EDE1877
:100BC000D8A405D09EEC06F013EC07F01CD0264A02
:100BD000272A19D0FF0E036EFF0E046E26C005F003
:100BE00027C006F00350052604500622000E0524F7
:100BF000D96E010E0620DA6E000EDF6E9EEC06F056
:100C000013EC07F000D014C0F5FF13C0F8FF12C0BA
:100C1000F7FF11C0F6FF10C0F4FF0FC0F3FF0EC0C6
:100C2000DAFF0DC0D9FF0CC0E2FF0BC0E1FF0AC024
:100C3000EAFF09C0E9FF08C0FBFF07C0FAFF110087
:100C4000E3EC06F08F0E176E080E186E000E1A6E8B
:100C5000010E196E4AEC04F0250E176E080E186E80
:100C6000000E1A6E010E196E4AEC04F0010E176E9A
:100C7000080E186E000E1A6E010E196E4AEC04F082
:100C8000250E176E080E186E000E1A6E010E196EE4
:100C90004AEC04F08F0E176E080E186E000E1A6ED6
:100CA000010E196E4AEC04F0490E176E080E186E0C
:100CB000000E1A6E010E196E4AEC04F0670E176EE4
:100CC000080E186E000E1A6E000E196E4AEC04F033
:100CD000FDEC04F000D00CEC07F015041610D8A4BD
:100CE000FAD7800E176E080E186E000E1A6E000EE0
:100CF000196E4AEC04F0F9EC06F015C017F016C0B6
:100D000018F0000E1A6E010E196E4AEC04F08F0EE8
:100D1000176E080E186E000E1A6E000E196E4AEC51
:100D200004F0670E176E080E186E000E1A6E000E95
:100D3000196E4AEC04F0CFD70CEF00F0000E026EF3
:100D4000000E016E11D0000E0124D96E010E02209A
:100D5000DA6E000E0124E16E020E0220E26EDFCF99
:100D6000E7FF014A022A00D02650015C27500258B2
:100D7000D8A0E9D7000E256E010E246E000E0101E9
:100D8000006F000E276E000E266E120002EE00F0BD
:100D900010EEFFF0EE6AE550E150FCE1E250FAE1BE
:100DA00001EE00F010EEFFF0EE6AE550E150FCE1DC
:100DB000E250FAE1276A266A256A246A000EF86E74
:100DC000000120EF06F0D388D38AD38CD350FC0BDC
:100DD0000209D36E949CAC9CAC8AAC98AC94B89647
:100DE000AB8E93980C0EAF6EAB889D8AF28CF28E10
:100DF000120024502510D8B409D0000E256E000E24
:100E0000246E000E156E020E04D005D08C0E156EE9
:100E1000080E166E00D0120024C015F025C016F082
:0A0E200012008A8812008A9812005E
:020000040020DA
:08000000FFFFFFFFFFFFFFFF00
:020000040030CA
:0E000000240B3F1EFF0181FF0FC00FE00F40D9
:00000001FF
